:100000000C942A000C94B20C0C94E50C0C94180D72
:100010000C946A1D0C941A1D0C94BA1B0C94F41ABF
:100020000C94571B0C94891A0C9433180C94E317F6
:100030000C9447000C9447000C9447000C94470024
:100040000C9447000C9447000C9447000C94470014
:100050000C94470011241FBECFE5D8E0DEBFCDBF12
:1000600010E0A0E6B0E0E8E0FBE402C005900D92ED
:10007000AE3EB107D9F711E0AEEEB0E001C01D927F
:10008000A134B107E1F70E94B51D0C9482250C94B0
:100090000000EF92FF920F931F937B018C0120E0F1
:1000A00030E040E05FE40E94F50388238CF0C80153
:1000B000B70120E030E040E05FE40E94C1010E940F
:1000C00055049B01AC01205030404040504806C0D0
:1000D000C801B7010E9455049B01AC01B901CA01D6
:1000E0001F910F91FF90EF900895A0E0B0E0EBE733
:1000F000F0E00C944B25DC012B01FA019C9192302D
:1001000008F439C1EB018881823008F433C194309E
:1001100069F4843009F02FC111969C91119789815F
:10012000981709F428C1A5ECB0E025C1843009F482
:1001300021C18230A9F4923009F01DC19A01AD01AC
:1001400088E0EA010990AE01E90109929E0181501F
:10015000C1F7E201898111969C918923818308C1AD
:10016000923009F407C112962D903C901397EB0141
:100170008A819B811496AD90BD90CD90DC901797AD
:10018000EC80FD800E811F819101281B390BB90184
:1001900037FF04C066277727621B730B6032710537
:1001A0000CF061C0121613066CF537014801062EDB
:1001B00004C096948794779467940A94D2F721E0C8
:1001C00030E040E050E004C0220F331F441F551FB1
:1001D0006A95D2F721503040404050402E213F21B7
:1001E00040235123211531054105510521F021E01E
:1001F00030E040E050E079018A01E628F72808293C
:1002000019293CC0232BD1F1260E371E350146019A
:10021000062E04C096948794779467940A94D2F734
:1002200021E030E040E050E004C0220F331F441FC3
:10023000551F6A95D2F721503040404050402A2146
:100240003B214C215D21211531054105510521F04E
:1002500021E030E040E050E059016A01A628B728CB
:10026000C828D9280BC0821593052CF01C01AA249C
:10027000BB24650103C0EE24FF24870111969C91E5
:10028000D20111968C91981709F445C0992339F041
:10029000A80197012A193B094C095D0906C0A6016E
:1002A00095012E193F09400B510B57FD08C01182D3
:1002B0003382228224833583468357831DC081E0A5
:1002C00081833382228288279927DC01821B930B4A
:1002D000A40BB50B84839583A683B7830DC0220F2F
:1002E000331F441F551F24833583468357838281E0
:1002F000938101979383828324813581468157813D
:10030000DA01C9010197A109B1098F5F9F4FAF4F72
:10031000BF4328F30BC0918333822282EA0CFB1C7B
:100320000C1D1D1DE482F5820683178383E0808304
:10033000248135814681578157FF1AC0C901AA27F8
:1003400097FDA095BA2F81709070A070B0705695EF
:10035000479537952795822B932BA42BB52B848318
:100360009583A683B7838281938101969383828349
:10037000DF0101C0D201CD01CDB7DEB7E2E10C94BF
:100380006725A0E2B0E0E7ECF1E00C945725698323
:100390007A838B839C832D833E834F835887E9E048
:1003A000EE2EF12CEC0EFD1ECE010196B7010E943F
:1003B0007E058E010F5E1F4FCE010596B8010E948B
:1003C0007E058A8991E089278A8BC701B801AE0131
:1003D000475E5F4F0E9475000E94A904A096E6E068
:1003E0000C947325A0E2B0E0E8EFF1E00C945725FF
:1003F00069837A838B839C832D833E834F835887C5
:10040000F9E0EF2EF12CEC0EFD1ECE010196B701A6
:100410000E947E058E010F5E1F4FCE010596B8012A
:100420000E947E05C701B801AE01475E5F4F0E9482
:1004300075000E94A904A096E6E00C947325A0E242
:10044000B0E0E5E2F2E00C944B2569837A838B837C
:100450009C832D833E834F835887CE010196BE0136
:10046000675F7F4F0E947E05CE010596BE016F5EDD
:100470007F4F0E947E059985923088F0898982306D
:10048000C8F0943019F4823051F404C0843029F457
:10049000923081F485EC90E0C6C0923049F420E0BF
:1004A0009A858A89981321E02A87CE010996BBC0D4
:1004B000823049F420E09A858A89981321E02A8BBA
:1004C000CE014196B0C02D843E844F8458886D88FB
:1004D0007E888F88988CEE24FF248701AA24BB2471
:1004E000650140E050E060E070E0E0E0F0E0C10174
:1004F00081709070892BE9F0E60CF71C081D191D1E
:100500009A01AB012A0D3B1D4C1D5D1D80E090E062
:10051000A0E0B0E0E614F7040805190520F481E036
:1005200090E0A0E0B0E0BA01A901480F591F6A1F8E
:100530007B1FAA0CBB1CCC1CDD1C97FE08C081E0F5
:1005400090E0A0E0B0E0A82AB92ACA2ADB2A3196B6
:10055000E032F10549F0660C771C881C991C569412
:10056000479437942794C3CFFA85EA892B893C892D
:100570008B859C85280F391F2E5F3F4F17C0CA01FE
:1005800081709070892B61F016950795F794E79428
:1005900080E090E0A0E0B0E8E82AF92A0A2B1B2BC3
:1005A00076956795579547952F5F3F4F77FDE7CF36
:1005B0000CC0440F551F661F771F17FD4160EE0CDE
:1005C000FF1C001F111F21503040403090E05907A0
:1005D00090E0690790E4790760F32B8F3C8FDB0193
:1005E000CA018F779070A070B07080349105A1051A
:1005F000B10561F447FD0AC0E114F10401051105DC
:1006000029F0405C5F4F6F4F7F4F40781A8EFE1786
:1006100011F081E08A8F4D8F5E8F6F8F78A383E01A
:10062000898FCE0149960E94A904A096E2E10C941C
:100630006725A8E1B0E0EFE1F3E00C94532569836E
:100640007A838B839C832D833E834F835887B9E0C5
:10065000EB2EF12CEC0EFD1ECE010196B7010E948F
:100660007E058E010F5E1F4FCE010596B8010E94D8
:100670007E052985223008F47EC03989323010F495
:10068000B8017CC08A859A8989278A87243011F02D
:10069000223031F4231709F06EC065EC70E06EC0B3
:1006A000343039F41D861E861F86188A1C861B86E8
:1006B00004C0323021F484E08987B7015FC02B8504
:1006C0003C858B899C89281B390B3C872B87ED84C3
:1006D000FE840F851889AD88BE88CF88D88CEA142F
:1006E000FB040C051D0540F4EE0CFF1C001F111F40
:1006F000215030403C872B8720E030E040E050E044
:1007000080E090E0A0E0B0E460E070E0EA14FB0478
:100710000C051D0540F0282B392B4A2B5B2BEA18C2
:10072000FB080C091D09B695A79597958795EE0CC2
:10073000FF1C001F111F6F5F7F4F6F31710531F775
:10074000DA01C9018F779070A070B0708034910584
:10075000A105B10561F427FD0AC0E114F10401050A
:10076000110529F0205C3F4F4F4F5F4F20782D87B8
:100770003E874F87588BBE01675F7F4FCB010E943A
:10078000A9046896EAE00C946F25A8E1B0E0EBECD0
:10079000F3E00C94572569837A838B839C832D83A4
:1007A0003E834F83588789E0E82EF12CEC0EFD1E26
:1007B000CE010196B7010E947E058E010F5E1F4F8C
:1007C000CE010596B8010E947E058985823040F0F1
:1007D0008989823028F0C701B8010E94F60501C05E
:1007E0008FEF6896E6E00C947325A8E1B0E0EBEF9C
:1007F000F3E00C94572569837A838B839C832D8344
:100800003E834F83588789E0E82EF12CEC0EFD1EC5
:10081000CE010196B7010E947E058E010F5E1F4F2B
:10082000CE010596B8010E947E058985823040F090
:100830008989823028F0C701B8010E94F60501C0FD
:100840008FEF6896E6E00C947325A8E1B0E0EBE248
:10085000F4E00C94572569837A838B839C832D83E2
:100860003E834F83588789E0E82EF12CEC0EFD1E65
:10087000CE010196B7010E947E058E010F5E1F4FCB
:10088000CE010596B8010E947E058985823040F030
:100890008989823028F0C701B8010E94F60501C09D
:1008A00081E06896E6E00C947325ACE0B0E0EBE5FF
:1008B000F4E00C945B2569837A838B839C83CE015F
:1008C0000196BE016B5F7F4F0E947E058D81823055
:1008D00061F1823050F1843021F48E81882351F10E
:1008E0002EC02F81388537FD20C06E812F31310514
:1008F0001CF06623F9F023C08EE190E0821B930B7D
:1009000029853A854B855C8504C056954795379572
:1009100027958A95D2F76623B1F05095409530958A
:1009200021953F4F4F4F5F4F0EC020E030E040E039
:1009300050E009C02FEF3FEF4FEF5FE704C020E02A
:1009400030E040E050E8B901CA012C96E2E00C9496
:100950007725DF92EF92FF920F931F93FC01E480C3
:10096000F58006811781D1808081823048F480E053
:1009700090E0A0E1B0E0E82AF92A0A2B1B2BA5C0E1
:10098000843009F49FC0823021F4EE24FF248701D3
:1009900005C0E114F1040105110519F4E0E0F0E0EF
:1009A00096C0628173819FEF623879070CF05BC05B
:1009B00022E83FEF261B370B2A3131052CF020E0CF
:1009C00030E040E050E02AC0B801A701022E04C088
:1009D00076956795579547950A94D2F781E090E010
:1009E000A0E0B0E004C0880F991FAA1FBB1F2A9582
:1009F000D2F70197A109B1098E219F21A023B1232C
:100A00000097A105B10521F081E090E0A0E0B0E001
:100A10009A01AB01282B392B4A2B5B2BDA01C90138
:100A20008F779070A070B07080349105A105B105EA
:100A300039F427FF09C0205C3F4F4F4F5F4F04C080
:100A4000215C3F4F4F4F5F4FE0E0F0E02030A0E0EF
:100A50003A07A0E04A07A0E45A0710F0E1E0F0E00E
:100A600079018A0127C06038710564F5FB01E158FE
:100A7000FF4FD801C7018F779070A070B07080349D
:100A80009105A105B10539F4E7FE0DC080E490E0C1
:100A9000A0E0B0E004C08FE390E0A0E0B0E0E80E9A
:100AA000F91E0A1F1B1F17FF05C016950795F7941F
:100AB000E794319687E016950795F794E7948A9521
:100AC000D1F705C0EE24FF248701EFEFF0E06E2F91
:100AD000679566276795902F9F77D794DD24D794E5
:100AE0008E2F8695492F462B582F5D29B701CA01B5
:100AF0001F910F91FF90EF90DF900895FC01DB01B3
:100B0000408151812281622F6F7770E0221F22275E
:100B1000221F9381892F880F822B282F30E0991F65
:100B20009927991F11969C93119721153105A9F5C5
:100B3000411551056105710511F482E037C082E865
:100B40009FEF13969C938E9312979A01AB0167E0E7
:100B5000220F331F441F551F6A95D1F783E08C93F2
:100B60000DC0220F331F441F551F12968D919C916B
:100B70001397019713969C938E931297203080E0E1
:100B8000380780E0480780E4580758F314962D93FF
:100B90003D934D935C93179708952F3F310579F45A
:100BA000411551056105710519F484E08C93089590
:100BB00064FF03C081E08C9312C01C9210C02F57B9
:100BC000304013963C932E93129783E08C9387E0EA
:100BD000440F551F661F771F8A95D1F770641496CE
:100BE0004D935D936D937C93179708951F93DC014C
:100BF000FB019C91923008F447C08081823008F458
:100C000043C0943051F411961C91843099F5818140
:100C1000682F70E0611B71093FC0843021F0923071
:100C200031F48230B9F18181882389F12DC0119688
:100C30001C9111978230F1F081811817D9F4129626
:100C40002D913C911397828193818217930794F0A1
:100C500028173907BCF014968D919D910D90BC9189
:100C6000A02D2481358146815781281739074A07ED
:100C70005B0718F4112341F00AC082179307A407F9
:100C8000B50740F4112319F061E070E005C06FEF83
:100C90007FEF02C060E070E0CB011F910895DF9309
:100CA000CF93CDB7DEB7EAE3F0E01082E7E3F0E000
:100CB00081E08083E4E3F0E08FEF8083E1E3F0E024
:100CC0008BEF8083EBE3F0E01082E8E3F0E084EF69
:100CD0008083E5E3F0E01082E2E3F0E08FE18083DF
:100CE000CF91DF910895DF93CF9300D000D0CDB79F
:100CF000DEB78A836B834C8381E089838A81843069
:100D000008F0D6C08B81883008F0D2C08C81813049
:100D100021F08C81882309F0CBC08A81882381F55A
:100D20008C818130A1F4AAE3B0E0EAE3F0E08081B5
:100D3000482F8B81282F30E081E090E0022E02C006
:100D4000880F991F0A94E2F7842B8C93B2C08C8190
:100D5000882309F0AEC0AAE3B0E0EAE3F0E08081C6
:100D6000482F8B81282F30E081E090E0022E02C0D6
:100D7000880F991F0A94E2F7809584238C9399C079
:100D80008A81813081F58C818130A1F4A7E3B0E0C4
:100D9000E7E3F0E08081482F8B81282F30E081E06D
:100DA00090E0022E02C0880F991F0A94E2F7842B6C
:100DB0008C937FC08C81882309F07BC0A7E3B0E0CF
:100DC000E7E3F0E08081482F8B81282F30E081E03D
:100DD00090E0022E02C0880F991F0A94E2F78095D6
:100DE00084238C9366C08A81823081F58C81813026
:100DF000A1F4A4E3B0E0E4E3F0E08081482F8B812C
:100E0000282F30E081E090E0022E02C0880F991F69
:100E10000A94E2F7842B8C934CC08C81882309F0D0
:100E200048C0A4E3B0E0E4E3F0E08081482F8B8188
:100E3000282F30E081E090E0022E02C0880F991F39
:100E40000A94E2F7809584238C9333C08A8183309F
:100E500081F58C818130A1F4A1E3B0E0E1E3F0E021
:100E60008081482F8B81282F30E081E090E0022E96
:100E700002C0880F991F0A94E2F7842B8C9319C043
:100E80008C818823B1F4A1E3B0E0E1E3F0E080815C
:100E9000482F8B81282F30E081E090E0022E02C0A5
:100EA000880F991F0A94E2F7809584238C9301C0E0
:100EB000198289810F900F900F900F90CF91DF9141
:100EC0000895DF93CF93CDB7DEB72A970FB6F89486
:100ED000DEBF0FBECDBF8A836B834C8381E08983E5
:100EE0008B81883008F0F9C08C81282F30E03A8758
:100EF000298789859A85009709F477C029853A85DD
:100F00002130310509F0E7C08A81282F30E0388789
:100F10002F838F8198858130910549F12F81388504
:100F2000223031052CF48F819885009761F05BC0E9
:100F30002F8138852230310571F18F81988583307A
:100F40009105E9F150C0ABE3B0E0EBE3F0E0808164
:100F5000482F8B81282F30E081E090E0022E02C0E4
:100F6000880F991F0A94E2F7842B8C93B7C0A8E3EB
:100F7000B0E0E8E3F0E08081482F8B81282F30E05B
:100F800081E090E0022E02C0880F991F0A94E2F7D8
:100F9000842B8C93A3C0A5E3B0E0E5E3F0E080816F
:100FA000482F8B81282F30E081E090E0022E02C094
:100FB000880F991F0A94E2F7842B8C938FC0A2E3C9
:100FC000B0E0E2E3F0E08081482F8B81282F30E011
:100FD00081E090E0022E02C0880F991F0A94E2F788
:100FE000842B8C937BC0198279C08A81282F30E0B2
:100FF0003E832D838D819E818130910559F12D8114
:101000003E81223031052CF48D819E81009769F05C
:1010100060C02D813E812230310589F18D819E8114
:101020008330910509F440C054C0ABE3B0E0EBE37A
:10103000F0E08081482F8B81282F30E081E090E024
:10104000022E02C0880F991F0A94E2F7809584232C
:101050008C9344C0A8E3B0E0E8E3F0E08081482F3F
:101060008B81282F30E081E090E0022E02C0880FB3
:10107000991F0A94E2F7809584238C932FC0A5E3EF
:10108000B0E0E5E3F0E08081482F8B81282F30E04D
:1010900081E090E0022E02C0880F991F0A94E2F7C7
:1010A000809584238C931AC0A2E3B0E0E2E3F0E0E1
:1010B0008081482F8B81282F30E081E090E0022E44
:1010C00002C0880F991F0A94E2F7809584238C93BD
:1010D00005C0198203C0198201C0198289812A962C
:1010E0000FB6F894DEBF0FBECDBFCF91DF9108954C
:1010F000DF93CF93CDB7DEB728970FB6F894DEBF56
:101100000FBECDBF8B836C835E834D8381E08A836A
:101110008C81883008F09DC08D819E81009709F4F4
:1011200098C08B81282F30E038872F834F815885D6
:1011300041305105A9F18F8198858230910534F4B1
:101140002F8138852115310571F081C04F81588577
:101150004230510509F441C08F8198858330910553
:1011600009F458C074C0E9E3F0E08081282F30E032
:101170008C81882F90E0A90102C0559547958A95EA
:10118000E2F7CA01817089838981813029F4ED8178
:10119000FE8181E080835EC0ED81FE8110825AC0B5
:1011A000E6E3F0E08081282F30E08C81882F90E00A
:1011B000A90102C0559547958A95E2F7CA01817049
:1011C00089838981813029F4ED81FE8181E08083EA
:1011D00041C0ED81FE8110823DC0E3E3F0E08081FB
:1011E000282F30E08C81882F90E0A90102C055950E
:1011F00047958A95E2F7CA01817089838981813098
:1012000029F4ED81FE8181E0808324C0ED81FE819F
:10121000108220C0E0E3F0E08081282F30E08C8154
:10122000882F90E0A90102C0559547958A95E2F76D
:10123000CA01817089838981813029F4ED81FE8121
:1012400081E0808307C0ED81FE81108203C01A8295
:1012500001C01A828A8128960FB6F894DEBF0FBEAD
:10126000CDBFCF91DF910895DF93CF93CDB7DEB798
:1012700029970FB6F894DEBF0FBECDBF8A836B836C
:1012800081E089838B81282F30E039872887888502
:1012900099850097D9F1288539852130310509F0E4
:1012A00066C08A81282F30E03F832E838E819F8104
:1012B00081309105D1F02E813F81223031052CF40F
:1012C0008E819F81009761F01FC02E813F81223067
:1012D000310581F08E819F818330910581F014C0AA
:1012E000EAE3F0E08FEF808343C0E7E3F0E08FEFC5
:1012F00080833EC0E4E3F0E08FEF808339C0E1E318
:10130000F0E08FEF808334C0198232C08A81282FA9
:1013100030E03D832C838C819D8181309105C9F023
:101320002C813D81223031052CF48C819D810097E8
:1013300061F01BC02C813D812230310571F08C8120
:101340009D818330910569F010C0EAE3F0E01082DE
:101350000FC0E7E3F0E010820BC0E4E3F0E010829E
:1013600007C0E1E3F0E0108203C0198201C01982D6
:10137000898129960FB6F894DEBF0FBECDBFCF91FD
:10138000DF910895DF93CF9300D000D00F92CDB7B7
:10139000DEB78A836B8381E089838A81282F30E0DE
:1013A0003D832C838C819D8181309105D1F02C81EE
:1013B0003D81223031052CF48C819D81009761F0B4
:1013C0001FC02C813D812230310581F08C819D81AF
:1013D0008330910581F014C0EBE3F0E08B818083D2
:1013E00010C0E8E3F0E08B8180830BC0E5E3F0E020
:1013F0008B81808306C0E2E3F0E08B81808301C0B3
:10140000198289810F900F900F900F900F90CF91BC
:10141000DF910895DF93CF9300D000D000D0CDB7F7
:10142000DEB78A837C836B8381E089838B819C8197
:101430000097E9F18A81282F30E03E832D838D814A
:101440009E8181309105E1F02D813E812230310570
:101450002CF48D819E81009761F027C02D813E8103
:1014600022303105A1F08D819E8183309105B1F04C
:101470001CC0E9E3F0E08081EB81FC81808318C02F
:10148000E6E3F0E08081EB81FC81808311C0E3E33F
:10149000F0E08081EB81FC8180830AC0E0E3F0E032
:1014A0008081EB81FC81808303C0198201C0198295
:1014B000898126960FB6F894DEBF0FBECDBFCF91BF
:1014C000DF910895DF93CF9300D000D00F92CDB776
:1014D000DEB78A836B8381E089838B81883008F053
:1014E00072C08B81883008F06EC08A81282F30E06E
:1014F0003D832C838C819D818130910549F12C8124
:101500003D81223031052CF48C819D81009761F062
:101510005AC02C813D812230310571F18C819D8131
:1015200083309105E9F14FC0ABE3B0E0EBE3F0E0CD
:101530008081482F8B81282F30E081E090E0022EBF
:1015400002C0880F991F0A94E2F784278C933BC04E
:10155000A8E3B0E0E8E3F0E08081482F8B81282FFA
:1015600030E081E090E0022E02C0880F991F0A94BB
:10157000E2F784278C9327C0A5E3B0E0E5E3F0E031
:101580008081482F8B81282F30E081E090E0022E6F
:1015900002C0880F991F0A94E2F784278C9313C026
:1015A000A2E3B0E0E2E3F0E08081482F8B81282FB6
:1015B00030E081E090E0022E02C0880F991F0A946B
:1015C000E2F784278C9389810F900F900F900F90F2
:1015D0000F90CF91DF910895DF93CF9300D000D08B
:1015E000CDB7DEB78A837C836B8381E089838A8170
:1015F000833088F48B819C81009769F08A81882FE1
:1016000090E0880F991FFC01E251FF4F8B819C8174
:101610009183808301C0198289810F900F900F9070
:101620000F90CF91DF910895DF93CF93CDB7DEB7C1
:101630002D970FB6F894DEBF0FBECDBF8A836B83A4
:1016400081E089838B81282F30E03D872C878C8532
:101650009D858130910509F45AC02C853D85223045
:1016600031052CF48C859D85009771F033C12C8554
:101670003D852230310509F48DC08C859D858330F0
:10168000910509F4D7C026C18A81282F30E03B8715
:101690002A878A859B8581309105F9F02A853B85CB
:1016A0002230310581F18A859B85009771F5A5E58A
:1016B000B0E0E5E5F0E080818E7F8C93A5E5B0E0B9
:1016C000E5E5F0E080818D7F8C93ABE5B0E0EBE564
:1016D000F0E0808180648C93FEC0A5E5B0E0E5E594
:1016E000F0E080818B7F8C93A5E5B0E0E5E5F0E04C
:1016F0008081877F8C93ABE5B0E0EBE5F0E0808103
:1017000080688C93E8C01982E6C01982E4C08A819F
:10171000282F30E039872887888599858130910581
:10172000F9F0288539852230310581F18885998540
:10173000009771F5A5E5B0E0E5E5F0E08081816016
:101740008C93A5E5B0E0E5E5F0E080818D7F8C939A
:10175000ABE5B0E0EBE5F0E0808180648C93BBC04A
:10176000A5E5B0E0E5E5F0E0808184608C93A5E537
:10177000B0E0E5E5F0E08081877F8C93ABE5B0E0F9
:10178000EBE5F0E0808180688C93A5C01982A3C04E
:101790001982A1C08A81282F30E03F832E838E8159
:1017A0009F8181309105F9F02E813F8122303105F2
:1017B00081F18E819F810097D9F5A5E5B0E0E5E53F
:1017C000F0E080818E7F8C93A5E5B0E0E5E5F0E068
:1017D000808182608C93ABE5B0E0EBE5F0E0808146
:1017E00080648C9378C0A5E5B0E0E5E5F0E0808109
:1017F0008B7F8C93A5E5B0E0E5E5F0E08081886023
:101800008C93ABE5B0E0EBE5F0E0808180688C93F1
:1018100062C0A4E5B0E0E4E5F0E080818F7B8C93CA
:10182000ABE5B0E0EBE5F0E0808180628C9353C0E3
:10183000198251C08A81282F30E03D832C838C810E
:101840009D8181309105F9F02C813D812230310557
:1018500081F18C819D810097D9F5A5E5B0E0E5E5A2
:10186000F0E0808181608C93A5E5B0E0E5E5F0E0F3
:10187000808182608C93ABE5B0E0EBE5F0E08081A5
:1018800080648C9328C0A5E5B0E0E5E5F0E08081B8
:1018900084608C93A5E5B0E0E5E5F0E080818860A8
:1018A0008C93ABE5B0E0EBE5F0E0808180688C9351
:1018B00012C0A4E5B0E0E4E5F0E0808180648C93A0
:1018C000ABE5B0E0EBE5F0E0808180628C9303C093
:1018D000198201C0198289812D960FB6F894DEBF56
:1018E0000FBECDBFCF91DF910895DF93CF9300D08E
:1018F00000D0CDB7DEB78A8381E089838A81282F23
:1019000030E03C832B838B819C818130910589F071
:101910002B813C8122303105A1F08B819C81009785
:10192000C1F4ABE5B0E0EBE5F0E080818F7B8C9318
:1019300011C0ABE5B0E0EBE5F0E080818F778C93F0
:1019400009C0ABE5B0E0EBE5F0E080818F7D8C93E2
:1019500001C0198289810F900F900F900F90CF9145
:10196000DF9108951F920F920FB60F9211242F93BB
:101970003F934F935F936F937F938F939F93AF9317
:10198000BF93EF93FF93DF93CF93CDB7DEB78091F3
:10199000EE009091EF00009729F0E091EE00F091B9
:1019A000EF000995CF91DF91FF91EF91BF91AF913A
:1019B0009F918F917F916F915F914F913F912F9167
:1019C0000F900FBE0F901F9018951F920F920FB699
:1019D0000F9211242F933F934F935F936F937F93B5
:1019E0008F939F93AF93BF93EF93FF93DF93CF9327
:1019F000CDB7DEB78091F0009091F100009729F00B
:101A0000E091F000F091F1000995CF91DF91FF9105
:101A1000EF91BF91AF919F918F917F916F915F9166
:101A20004F913F912F910F900FBE0F901F901895DF
:101A30001F920F920FB60F9211242F933F934F9343
:101A40005F936F937F938F939F93AF93BF93EF9326
:101A5000FF93DF93CF93CDB7DEB78091F2009091E3
:101A6000F300009729F0E091F200F091F30009955E
:101A7000CF91DF91FF91EF91BF91AF919F918F91A6
:101A80007F916F915F914F913F912F910F900FBE7A
:101A90000F901F901895DF93CF93CDB7DEB7AFE5CA
:101AA000B0E0EFE5F0E0808180688C93CF91DF912A
:101AB0000895DF93CF93CDB7DEB7AFE5B0E0EFE5A4
:101AC000F0E080818F778C93CF91DF910895DF9341
:101AD000CF93CDB7DEB765970FB6F894DEBF0FBED4
:101AE000CDBF9D8B8C8B81E08A8B1F868C899D89D5
:101AF000009709F41BC1198A14C18989882F90E0C5
:101B0000FC01E352FF4F20818989882F90E0FC017E
:101B1000EF51FF4F9081822F692F40E00E946107B3
:101B2000188AE2C08889882F90E0FC01EB51FF4FB2
:101B300040818889882F90E0FC01E751FF4F908118
:101B40009E012D5E3F4F842F692FA9010E947808C6
:101B50008B89882309F0C1C080E090E0A0EAB1E45D
:101B60008B879C87AD87BE876B857C858D859E85A1
:101B700020E030E04AEF54E40E941F02DC01CB0178
:101B80008F839887A987BA876F81788589859A8599
:101B900020E030E040E85FE30E94250488232CF435
:101BA00081E090E09E838D833FC06F817885898539
:101BB0009A8520E03FEF4FE757E40E94C5031816CF
:101BC0004CF56B857C858D859E8520E030E040E27C
:101BD00051E40E941F02DC01CB01BC01CD010E9437
:101BE0004900DC01CB019E838D830FC088EC90E01F
:101BF0009C838B838B819C810197F1F79C838B83E2
:101C00008D819E8101979E838D838D819E8100971A
:101C100069F714C06F81788589859A850E9449008B
:101C2000DC01CB019E838D838D819E819A83898384
:101C300089819A810197F1F79A8389838889882F0E
:101C400090E0FC01EB51FF4F40818889882F90E0A4
:101C5000FC01E751FF4F90819E012D5E3F4F842F85
:101C6000692FA9010E9478088B89882389F516C0FD
:101C70008889882F90E0FC01EB51FF4F40818889D3
:101C8000882F90E0FC01E751FF4F90819E012D5E6F
:101C90003F4F842F692FA9010E9478088B898823E0
:101CA00039F38989482F50E08889282F30E0CA010C
:101CB000880F991F880F991F820F931FFC01E35310
:101CC000FF4F8081EC89FD89808381E08F8710C080
:101CD000EC89FD898FEF808304C0EC89FD898FEF4B
:101CE000808388898F5F888B8889843008F41ACF35
:101CF0008989882F90E0FC01E352FF4F2081898978
:101D0000882F90E0FC01EF51FF4F9081822F692FC7
:101D100041E00E9461078F85813049F089898F5F9A
:101D2000898B8989843008F4E8CE01C01A8A8A89AF
:101D300065960FB6F894DEBF0FBECDBFCF91DF9191
:101D400008950F931F93DF93CF93CDB7DEB7C6559A
:101D5000D0400FB6F894DEBF0FBECDBFFE01ED5AE6
:101D6000FF4F80E090E0ACE0B2E480839183A283F7
:101D7000B3838E01015B1F4FFE01ED5AFF4F60815F
:101D800071818281938120E030E04AEF54E40E9427
:101D90001F02DC01CB01F80180839183A283B3830E
:101DA000FE01E15BFF4F608171818281938120E0C0
:101DB00030E040E85FE30E942504882344F4FE01FC
:101DC000E35BFF4F81E090E09183808364C0FE017C
:101DD000E15BFF4F608171818281938120E03FEF61
:101DE0004FE757E40E94C50318160CF043C0FE01EC
:101DF000ED5AFF4F608171818281938120E030E054
:101E000040E251E40E941F02DC01CB018E01035B22
:101E10001F4FBC01CD010E944900DC01CB01F8013C
:101E2000918380831FC0FE01E55BFF4F88EC90E04B
:101E300091838083FE01E55BFF4F80819181019753
:101E4000F1F7FE01E55BFF4F91838083DE01A35B29
:101E5000BF4FFE01E35BFF4F808191810197119697
:101E60009C938E93FE01E35BFF4F808191810097ED
:101E7000D1F627C08E01035B1F4FFE01E15BFF4FD0
:101E800060817181828193810E944900DC01CB01D4
:101E9000F80191838083DE01A75BBF4FFE01E35B06
:101EA000FF4F808191818D939C93FE01E75BFF4FF3
:101EB000808191810197F1F7FE01E75BFF4F9183EC
:101EC000808388E30E94D211FE01EB5BFF4F80E02C
:101ED00090E0A0E2B2E480839183A283B3838E0179
:101EE0000F5B1F4FFE01EB5BFF4F608171818281B1
:101EF00093812BEA3AEA4AE250E40E941F02DC0195
:101F0000CB01F80180839183A283B383FE01EF5B51
:101F1000FF4F608171818281938120E030E040E851
:101F20005FE30E942504882334F481E0FE01E05C35
:101F3000FF4F80839DC0FE01EF5BFF4F6081718189
:101F40008281938120E030E04FE753E40E94C50393
:101F500018160CF07EC0FE01EB5BFF4F60817181B3
:101F60008281938120E030E04AE754E40E94190323
:101F7000DC01CB018CAF9DAFAEAFBFAF6CAD7DAD23
:101F80008EAD9FAD20E030E04AEF54E40E941F0286
:101F9000DC01CB0188AF99AFAAAFBBAF68AD79AD1B
:101FA0008AAD9BAD20E030E040E85FE30E9425046D
:101FB00088232CF481E090E09FAB8EAB3FC068ADEE
:101FC00079AD8AAD9BAD20E03FEF4FE757E40E942B
:101FD000C50318164CF56CAD7DAD8EAD9FAD20E000
:101FE00030E040E251E40E941F02DC01CB01BC0161
:101FF000CD010E944900DC01CB019FAB8EAB0FC02D
:1020000088EC90E09DAB8CAB8CA99DA90197F1F772
:102010009DAB8CAB8EA99FA901979FAB8EAB8EA970
:102020009FA9009769F72DC068AD79AD8AAD9BADCA
:102030000E944900DC01CB019FAB8EAB8EA99FA90A
:102040009BAB8AAB8AA99BA90197F1F79BAB8AABA3
:1020500018C0FE01EF5BFF4F608171818281938127
:102060000E944900DC01CB01FE01E05CFF4F808350
:10207000FE01E05CFF4F808189AB89A98A95F1F769
:1020800089AB8FE00E94D21180E090E0A0E2B2E440
:102090008DA79EA7AFA7B8AB6DA57EA58FA598A964
:1020A0002BEA3AEA4AE250E40E941F02DC01CB012B
:1020B00089A79AA7ABA7BCA769A57AA58BA59CA55C
:1020C00020E030E040E85FE30E94250488231CF410
:1020D00081E088A791C069A57AA58BA59CA520E081
:1020E00030E04FE753E40E94C50318160CF07BC0A4
:1020F0006DA57EA58FA598A920E030E04AE754E4BD
:102100000E941903DC01CB018CA39DA3AEA3BFA346
:102110006CA17DA18EA19FA120E030E04AEF54E4A4
:102120000E941F02DC01CB0188A399A3AAA3BBA331
:1021300068A179A18AA19BA120E030E040E85FE39B
:102140000E94250488232CF481E090E09F8F8E8FDD
:102150003FC068A179A18AA19BA120E03FEF4FE792
:1021600057E40E94C50318164CF56CA17DA18EA101
:102170009FA120E030E040E251E40E941F02DC0118
:10218000CB01BC01CD010E944900DC01CB019F8F36
:102190008E8F0FC088EC90E09D8F8C8F8C8D9D8DE5
:1021A0000197F1F79D8F8C8F8E8D9F8D01979F8F5B
:1021B0008E8F8E8D9F8D009769F724C068A179A1BD
:1021C0008AA19BA10E944900DC01CB019F8F8E8FC9
:1021D0008E8D9F8D9B8F8A8F8A8D9B8D0197F1F7B6
:1021E0009B8F8A8F0FC069A57AA58BA59CA50E949D
:1021F0004900DC01CB0188A788A5898F898D8A9544
:10220000F1F7898F81E00E94D21180E090EEAFEB70
:10221000B4E48D8B9E8BAF8BB88F6D897E898F894F
:10222000988D2BEA3AEA4AE250E40E941F02DC0150
:10223000CB01898B9A8BAB8BBC8B69897A898B8913
:102240009C8920E030E040E85FE30E942504882379
:102250001CF481E0888B91C069897A898B899C897B
:1022600020E030E04FE753E40E94C50318160CF05D
:102270007BC06D897E898F89988D20E030E04AE7A8
:1022800054E40E941903DC01CB018C879D87AE8743
:10229000BF876C857D858E859F8520E030E04AEF85
:1022A00054E40E941F02DC01CB0188879987AA872A
:1022B000BB87688579858A859B8520E030E040E88A
:1022C0005FE30E94250488232CF481E090E09F8343
:1022D0008E833FC0688579858A859B8520E03FEFA6
:1022E0004FE757E40E94C50318164CF56C857D85B1
:1022F0008E859F8520E030E040E251E40E941F027D
:10230000DC01CB01BC01CD010E944900DC01CB0105
:102310009F838E830FC088EC90E09D838C838C819B
:102320009D810197F1F79D838C838E819F81019719
:102330009F838E838E819F81009769F724C0688573
:1023400079858A859B850E944900DC01CB019F83AA
:102350008E838E819F819B838A838A819B81019753
:10236000F1F79B838A830FC069897A898B899C895D
:102370000E944900DC01CB01888B8889898389818F
:102380008A95F1F7898386E00E94D211CA5ADF4FFD
:102390000FB6F894DEBF0FBECDBFCF91DF911F9176
:1023A0000F910895DF93CF93CDB7DEB769970FB63E
:1023B000F894DEBF0FBECDBF898F83E067E040E0B9
:1023C0000E94610783E066E040E00E94610782E0CE
:1023D000698D0E94C20983E065E041E00E946107C7
:1023E00080E090E0A0E8BFE38D8B9E8BAF8BB88F31
:1023F0006D897E898F89988D2BEA3AEA4AE250E40A
:102400000E941F02DC01CB01898B9A8BAB8BBC8BAA
:1024100069897A898B899C8920E030E040E85FE314
:102420000E94250488231CF481E0888B91C069896F
:102430007A898B899C8920E030E04FE753E40E9441
:10244000C50318160CF07BC06D897E898F89988D25
:1024500020E030E04AE754E40E941903DC01CB019C
:102460008C879D87AE87BF876C857D858E859F8590
:1024700020E030E04AEF54E40E941F02DC01CB016F
:1024800088879987AA87BB87688579858A859B8590
:1024900020E030E040E85FE30E94250488232CF42C
:1024A00081E090E09F838E833FC0688579858A852F
:1024B0009B8520E03FEF4FE757E40E94C5031816C5
:1024C0004CF56C857D858E859F8520E030E040E26F
:1024D00051E40E941F02DC01CB01BC01CD010E942E
:1024E0004900DC01CB019F838E830FC088EC90E014
:1024F0009D838C838C819D810197F1F79D838C83D3
:102500008E819F8101979F838E838E819F8100970B
:1025100069F724C0688579858A859B850E94490072
:10252000DC01CB019F838E838E819F819B838A8375
:102530008A819B810197F1F79B838A830FC0698908
:102540007A898B899C890E944900DC01CB01888BA8
:102550008889898389818A95F1F7898383E065E099
:1025600040E00E94610769960FB6F894DEBF0FBE87
:10257000CDBFCF91DF910895DF93CF93CDB7DEB775
:1025800069970FB6F894DEBF0FBECDBF898F83E089
:1025900067E041E00E94610783E066E040E00E945E
:1025A000610782E0698D0E94C20983E065E041E035
:1025B0000E94610780E090E0A0E8BFE38D8B9E8BD6
:1025C000AF8BB88F6D897E898F89988D2BEA3AEA17
:1025D0004AE250E40E941F02DC01CB01898B9A8BF6
:1025E000AB8BBC8B69897A898B899C8920E030E030
:1025F00040E85FE30E94250488231CF481E0888B77
:1026000091C069897A898B899C8920E030E04FE705
:1026100053E40E94C50318160CF07BC06D897E89B7
:102620008F89988D20E030E04AE754E40E94190336
:10263000DC01CB018C879D87AE87BF876C857D854C
:102640008E859F8520E030E04AEF54E40E941F020F
:10265000DC01CB0188879987AA87BB876885798544
:102660008A859B8520E030E040E85FE30E942504F6
:1026700088232CF481E090E09F838E833FC068859F
:1026800079858A859B8520E03FEF4FE757E40E94DC
:10269000C50318164CF56C857D858E859F8520E0D9
:1026A00030E040E251E40E941F02DC01CB01BC019A
:1026B000CD010E944900DC01CB019F838E830FC0B6
:1026C00088EC90E09D838C838C819D810197F1F74C
:1026D0009D838C838E819F8101979F838E838E81C2
:1026E0009F81009769F724C0688579858A859B85D5
:1026F0000E944900DC01CB019F838E838E819F81E4
:102700009B838A838A819B810197F1F79B838A83CC
:102710000FC069897A898B899C890E944900DC01F4
:10272000CB01888B8889898389818A95F1F7898390
:1027300083E065E040E00E94610769960FB6F89477
:10274000DEBF0FBECDBFCF91DF910895DF93CF9352
:1027500000D00F92CDB7DEB79B838A8319820EC05B
:102760008981282F30E08A819B81FC01E20FF31FD1
:1027700080810E94BC1289818F5F89838981282F83
:1027800030E08A819B81FC01E20FF31F8081882366
:1027900039F70F900F900F90CF91DF910895EF923E
:1027A000FF920F931F93DF93CF93CDB7DEB7E997D7
:1027B0000FB6F894DEBF0FBECDBF6EAB7FAB88AF58
:1027C00099AF8AE090E0A0E0B0E08A879B87AC8771
:1027D000BD8781E089838EA99FA9A8ADB9AD009777
:1027E000A105B10509F073C080E30E94BC126FC05F
:1027F0008EA99FA9A8ADB9AD2A853B854C855D857D
:10280000BC01CD010E942925DC01CB018E839F8371
:10281000A887B9878A859B85AC85BD852AE030E08D
:1028200040E050E0BC01CD010E942925DA01C90138
:102830009C01AD018E819F81A885B985BC01CD0128
:102840000E942925DA01C9018A839B83AC83BD8359
:102850008981882F90E09C01220F331F220F331FA4
:10286000CE010196820F931FFC013D968A819B81C8
:10287000AC81BD8180839183A283B38389818F5F83
:1028800089832EA93FA948AD59AD8E819F81A88526
:10289000B98579018A01E81AF90A0A0B1B0BD801DC
:1028A000C7018EAB9FABA8AFB9AF8A859B85AC85BE
:1028B000BD852AE030E040E050E0BC01CD010E943F
:1028C000F624DC01CB018A879B87AC87BD878EA964
:1028D0009FA9A8ADB9AD0097A105B10509F088CFB2
:1028E00089818150898318C08981882F90E09C015B
:1028F000220F331F220F331FCE010196820F931F29
:10290000FC013D9680819181A281B381805D0E940E
:10291000BC128981815089838981882329F7E996AE
:102920000FB6F894DEBF0FBECDBFCF91DF911F91E0
:102930000F91FF90EF900895DF93CF9300D000D0D8
:102940000F92CDB7DEB78A836B8381E089838B8159
:102950008832E0F48A81282F30E03D832C838C81FB
:102960009D818130910531F02C813D8122303105EE
:1029700031F00AC08B8180580E94D21108C08B812F
:1029800080540E94D21103C0198201C0198289812A
:102990000F900F900F900F900F90CF91DF910895AF
:1029A000DF93CF93CDB7DEB72E970FB6F894DEBF87
:1029B0000FBECDBF81E00E94D21180E090E0A0E088
:1029C000B0E48B879C87AD87BE876B857C858D85C2
:1029D0009E8520E030E04AEF54E40E941F02DC01B3
:1029E000CB018F839887A987BA876F81788589857E
:1029F0009A8520E030E040E85FE30E9425048823C8
:102A00002CF481E090E09E838D833FC06F817885B8
:102A100089859A8520E03FEF4FE757E40E94C50380
:102A200018164CF56B857C858D859E8520E030E001
:102A300040E251E40E941F02DC01CB01BC01CD0148
:102A40000E944900DC01CB019E838D830FC088EC7E
:102A500090E09C838B838B819C810197F1F79C8311
:102A60008B838D819E8101979E838D838D819E8135
:102A7000009769F714C06F81788589859A850E94CF
:102A80004900DC01CB019E838D838D819E819A83D9
:102A9000898389819A810197F1F79A8389832E9698
:102AA0000FB6F894DEBF0FBECDBFCF91DF91089572
:102AB000DF93CF93CDB7DEB72E970FB6F894DEBF76
:102AC0000FBECDBF8A877C876B8781E089878A8527
:102AD000883008F0F1C08A85282F30E03E872D87A6
:102AE0008D859E858330910509F473C02D853E85C3
:102AF0002430310584F48D859E8581309105D9F18E
:102B00002D853E85223031050CF04CC08D859E858B
:102B10000097D1F0D2C02D853E852530310509F4CE
:102B200086C08D859E85853091050CF469C02D8504
:102B30003E852630310509F491C08D859E8587300C
:102B4000910509F4A2C0B9C080E40E94D211188690
:102B50000EC08885282F30E08B859C85FC01E20F14
:102B6000F31F80810E94BC1288858F5F88878885CB
:102B7000883078F3A2C088E40E94D2111F820EC070
:102B80008F81282F30E08B859C85FC01E20FF31F9D
:102B900080810E94BC128F818F5F8F838F818830EC
:102BA00078F38BC080E50E94D2111E820EC08E8108
:102BB000282F30E08B859C85FC01E20FF31F80817C
:102BC0000E94BC128E818F5F8E838E81883078F355
:102BD00074C088E50E94D2111D820EC08D81282FFD
:102BE00030E08B859C85FC01E20FF31F80810E9401
:102BF000BC128D818F5F8D838D81883078F35DC0AD
:102C000080E60E94D2111C820EC08C81282F30E0F9
:102C10008B859C85FC01E20FF31F80810E94BC1212
:102C20008C818F5F8C838C81883078F346C088E6F6
:102C30000E94D2111B820EC08B81282F30E08B8521
:102C40009C85FC01E20FF31F80810E94BC128B81E6
:102C50008F5F8B838B81883078F32FC080E70E9451
:102C6000D2111A820EC08A81282F30E08B859C8574
:102C7000FC01E20FF31F80810E94BC128A818F5FEA
:102C80008A838A81883078F318C088E70E94D2113D
:102C900019820EC08981282F30E08B859C85FC012C
:102CA000E20FF31F80810E94BC1289818F5F8983AC
:102CB0008981883078F301C0198689852E960FB6F0
:102CC000F894DEBF0FBECDBFCF91DF910895DF93A3
:102CD000CF9300D000D0CDB7DEB78A836B834C830F
:102CE00081E089838A81883088F48B81813019F072
:102CF0008B81823059F48C81883240F48B816C81D5
:102D00000E949C148A810E94BC1201C01982898190
:102D10000F900F900F900F90CF91DF910895DF9358
:102D2000CF930F92CDB7DEB789838981882321F4B1
:102D300080E10E94D21106C08981813019F484E1BA
:102D40000E94D2110F90CF91DF910895DF93CF931E
:102D50000F92CDB7DEB789838981882321F488E17A
:102D60000E94D21106C08981813019F48CE10E9441
:102D7000D2110F90CF91DF910895DF93CF9300D0C0
:102D80000F92CDB7DEB79B838A8381E089838A81E6
:102D90009B81009779F083E067E040E00E94610743
:102DA00083E066E040E00E946107EA81FB8182E007
:102DB000808301C0198289810F900F900F90CF916D
:102DC000DF910895DF93CF9300D000D00F92CDB75D
:102DD000DEB79B838A837D836C8381E089838C81CA
:102DE0009D81009769F08C819D819093F50080937F
:102DF000F4008A819B8190931E0180931D0101C084
:102E0000198289810F900F900F900F900F90CF91A2
:102E1000DF910895DF93CF9300D000D00F92CDB70C
:102E2000DEB79B838A837D836C8381E089838C8179
:102E30009D81009769F08C819D819093F70080932C
:102E4000F6008A819B81909321018093200101C02B
:102E5000198289810F900F900F900F900F90CF9152
:102E6000DF910895DF93CF930F92CDB7DEB78983BB
:102E7000ECE5F0E0898180830F90CF91DF91089598
:102E8000DF93CF930F92CDB7DEB78983E2E5F0E011
:102E900089818083898180931F010F90CF91DF9179
:102EA0000895DF93CF9300D00F92CDB7DEB79B8309
:102EB0008A8381E089838A819B81009739F0E2E5EA
:102EC000F0E08081EA81FB81808301C019828981E1
:102ED0000F900F900F90CF91DF910895DF93CF93D4
:102EE0000F92CDB7DEB781E08983A3E5B0E0E3E5DB
:102EF000F0E08081877F8C93A3E5B0E0E3E5F0E02C
:102F000080818F7B8C93A3E5B0E0E3E5F0E08081E6
:102F10008F7D8C93A3E5B0E0E3E5F0E080818F7EC8
:102F20008C93A9E5B0E0E9E5F0E080818D7F8C939A
:102F3000A9E5B0E0E9E5F0E0808181608C93A3E54C
:102F4000B0E0E3E5F0E080818B7F8C93A3E5B0E017
:102F5000E3E5F0E0808182608C93A3E5B0E0E3E5F7
:102F6000F0E080818E7F8C9389810F90CF91DF91EB
:102F70000895DF93CF93CDB7DEB7A9E5B0E0E9E5DB
:102F8000F0E080818D7F8C93A9E5B0E0E9E5F0E089
:102F900080818E7F8C93CF91DF910895DF93CF93C3
:102FA000CDB7DEB7A9E5B0E0E9E5F0E080818D7F3F
:102FB0008C93A9E5B0E0E9E5F0E0808181608C9335
:102FC000CF91DF9108951F920F920FB60F921124A7
:102FD0002F933F934F935F936F937F938F939F9321
:102FE000AF93BF93EF93FF93DF93CF93CDB7DEB74C
:102FF0008091F8009091F90001969093F9008093E8
:10300000F8002091F8003091F90080911D01909115
:103010001E0128173907A1F4E2E5F0E080911F01B5
:1030200080831092F9001092F8008091F400909142
:10303000F500009729F0E091F400F091F500099572
:10304000CF91DF91FF91EF91BF91AF919F918F91C0
:103050007F916F915F914F913F912F910F900FBE94
:103060000F901F9018951F920F920FB60F92112478
:103070002F933F934F935F936F937F938F939F9380
:10308000AF93BF93EF93FF93DF93CF93CDB7DEB7AB
:103090008091FA009091FB0001969093FB00809341
:1030A000FA002091FA003091FB008091200190916C
:1030B00021012817390779F41092FB001092FA00C9
:1030C0008091F6009091F700009729F0E091F600CA
:1030D000F091F7000995CF91DF91FF91EF91BF91AA
:1030E000AF919F918F917F916F915F914F913F91A0
:1030F0002F910F900FBE0F901F901895DF93CF93D5
:10310000CDB7DEB727970FB6F894DEBF0FBECDBFA1
:103110006A837B838C839D835F834E8381E0898375
:103120008E819F81009799F08E819F819093FD0001
:103130008093FC008A819B81AC81BD8180932201B8
:1031400090932301A0932401B093250101C019821B
:10315000898127960FB6F894DEBF0FBECDBFCF9101
:10316000DF910895DF93CF93CDB7DEB727970FB6E2
:10317000F894DEBF0FBECDBF6A837B838C839D83B3
:103180005F834E8381E089838E819F81009799F0D0
:103190008E819F819093FF008093FE008A819B81A6
:1031A000AC81BD818093280190932901A0932A01CD
:1031B000B0932B0101C01982898127960FB6F8942C
:1031C000DEBF0FBECDBFCF91DF910895DF93CF93C8
:1031D000CDB7DEB727970FB6F894DEBF0FBECDBFD1
:1031E0006A837B838C839D835F834E8381E08983A5
:1031F0008E819F81009799F08E819F81909301012C
:10320000809300018A819B81AC81BD8180932C01D8
:1032100090932D01A0932E01B0932F0101C019822C
:10322000898127960FB6F894DEBF0FBECDBFCF9130
:10323000DF910895DF93CF9300D0CDB7DEB79A83A7
:103240008983EAE4F0E089819A81918380830F90F9
:103250000F90CF91DF910895DF93CF9300D0CDB73A
:10326000DEB79A838983E8E4F0E089819A819183CB
:1032700080830F900F90CF91DF910895DF93CF93CC
:1032800000D0CDB7DEB79A838983ECE4F0E0898182
:103290009A819183808389819A8190932701809379
:1032A00026010F900F90CF91DF910895DF93CF9378
:1032B00000D0CDB7DEB79A838983E6E4F0E0898158
:1032C0009A81918380830F900F90CF91DF91089521
:1032D000DF93CF9300D00F92CDB7DEB79B838A8365
:1032E00081E089838A819B81009749F0ECE4F0E0DA
:1032F00080819181EA81FB819183808301C0198261
:1033000089810F900F900F90CF91DF910895DF93F7
:10331000CF93CDB7DEB7AEE4B0E0EEE4F0E080816D
:1033200080648C93A9E5B0E0E9E5F0E080818062FB
:103330008C93CF91DF910895DF93CF9300D00F92BC
:10334000CDB7DEB79B838A8381E089838A819B81A5
:10335000009749F08091020190910301EA81FB817D
:103360009183808301C0198289810F900F900F9003
:10337000CF91DF910895DF93CF9300D00F92CDB717
:10338000DEB79B838A8381E089838A819B81009752
:10339000A1F02091020130910301809104019091EC
:1033A0000501820F931FCC01A0E0B0E0EA81FB8110
:1033B00080839183A283B38301C0198289810F9096
:1033C0000F900F90CF91DF910895DF93CF9300D0AE
:1033D0000F92CDB7DEB79B838A8381E089838A8190
:1033E0009B81009731F18091020190910301CC0102
:1033F000A0E0B0E024E630E040E050E0BC01CD01C8
:103400000E94F624DC01CB01482F50E020910201FC
:10341000309103018091040190910501280F391F1B
:10342000CA01B9010E941525CB01EA81FB81808385
:1034300001C0198289810F900F900F90CF91DF9179
:103440000895DF93CF930F92CDB7DEB781E08983E4
:10345000AFE4B0E0EFE4F0E080818E7F8C93AFE4E6
:10346000B0E0EFE4F0E0808182608C93AEE4B0E005
:10347000EEE4F0E0808188608C93AEE4B0E0EEE4AE
:10348000F0E0808180618C93AFE4B0E0EFE4F0E0A5
:10349000808180688C93AFE4B0E0EFE4F0E080815D
:1034A0008F7B8C931982A9E5B0E0E9E5F0E080819B
:1034B0008B7F8C93A9E5B0E0E9E5F0E08081877F20
:1034C0008C93A9E5B0E0E9E5F0E080818F7E8C93F4
:1034D000A9E5B0E0E9E5F0E080818F7D8C93AEE472
:1034E000B0E0EEE4F0E080818B7F8C93AEE4B0E05E
:1034F000EEE4F0E0808182608C93AEE4B0E0EEE434
:10350000F0E080818E7F8C9389810F90CF91DF9145
:1035100008951F920F920FB60F9211242F933F938D
:103520004F935F936F937F938F939F93AF93BF93CB
:10353000EF93FF93DF93CF93CDB7DEB78091060172
:1035400090910701A0910801B09109010196A11D78
:10355000B11D8093060190930701A0930801B093D9
:103560000901209106013091070140910801509115
:1035700009018091220190912301A0912401B09131
:103580002501281739074A075B07D9F4ECE4F0E076
:1035900080912601909127019183808310920601EA
:1035A0001092070110920801109209018091FC000D
:1035B0009091FD00009729F0E091FC00F091FD0052
:1035C0000995CF91DF91FF91EF91BF91AF919F91BD
:1035D0008F917F916F915F914F913F912F910F90BC
:1035E0000FBE0F901F9018951F920F920FB60F925B
:1035F00011242F933F934F935F936F937F938F93F8
:103600009F93AF93BF93EF93FF93DF93CF93CDB788
:10361000DEB780910A0190910B01A0910C01B0914D
:103620000D010196A11DB11D80930A0190930B011C
:10363000A0930C01B0930D0120910A0130910B0170
:1036400040910C0150910D01809128019091290128
:10365000A0912A01B0912B01281739074A075B076F
:1036600099F410920A0110920B0110920C01109221
:103670000D018091FE009091FF00009729F0E091EC
:10368000FE00F091FF000995CF91DF91FF91EF913E
:10369000BF91AF919F918F917F916F915F914F916A
:1036A0003F912F910F900FBE0F901F9018951F9272
:1036B0000F920FB60F9211242F933F934F935F9366
:1036C0006F937F938F939F93AF93BF93EF93FF93EA
:1036D000DF93CF93CDB7DEB780910E0190910F01AC
:1036E000A0911001B09111010196A11DB11D80930F
:1036F0000E0190930F01A0931001B093110120913E
:103700000E0130910F0140911001509111018091F3
:103710002C0190912D01A0912E01B0912F0128171D
:1037200039074A075B0799F410920E0110920F01B6
:1037300010921001109211018091000190910101ED
:10374000009729F0E0910001F09101010995CF91D6
:10375000DF91FF91EF91BF91AF919F918F917F91F9
:103760006F915F914F913F912F910F900FBE0F90EE
:103770001F9018951F920F920FB60F9211242F933E
:103780003F938F939F93AF93BF93EF93FF93DF93F9
:10379000CF9300D0CDB7DEB7E6E4F0E08081918131
:1037A0009A838983809114018823B9F420911201AE
:1037B0003091130189819A81821B930B90930501AB
:1037C00080930401AEE4B0E0EEE4F0E080818F7B12
:1037D0008C9381E08093140115C0209112013091E7
:1037E000130189819A81821B930B9093030180932B
:1037F0000201AEE4B0E0EEE4F0E0808180648C93FE
:103800001092140189819A8190931301809312017F
:103810000F900F90CF91DF91FF91EF91BF91AF91FA
:103820009F918F913F912F910F900FBE0F901F90FE
:103830001895DF93CF9300D000D00F92CDB7DEB7AD
:103840009B838A837D836C8381E089838C819D81C6
:10385000009769F08C819D819093160180931501EA
:103860008A819B81909331018093300101C019823C
:1038700089810F900F900F900F900F90CF91DF9153
:103880000895DF93CF9300D000D00F92CDB7DEB76D
:103890009B838A837D836C8381E089838C819D8176
:1038A000009769F08C819D81909318018093170196
:1038B0008A819B81909334018093330101C01982E6
:1038C00089810F900F900F900F900F90CF91DF9103
:1038D0000895DF93CF930F92CDB7DEB78983E3E4EA
:1038E000F0E0898180830F90CF91DF910895DF937D
:1038F000CF930F92CDB7DEB78983E4E4F0E08981FE
:1039000080838981809332010F90CF91DF91089558
:10391000DF93CF9300D00F92CDB7DEB79B838A831E
:1039200081E089838A819B81009739F0E4E4F0E0AB
:103930008081EA81FB81808301C0198289810F9097
:103940000F900F90CF91DF910895DF93CF930F9257
:10395000CDB7DEB781E08983A5E4B0E0E5E4F0E02F
:103960008081877F8C93A5E4B0E0E5E4F0E080817E
:103970008F7B8C93A5E4B0E0E5E4F0E080818F7D5F
:103980008C93A5E4B0E0E5E4F0E080818F7E8C9339
:10399000A9E5B0E0E9E5F0E080818F778C93A9E5B7
:1039A000B0E0E9E5F0E0808180648C93A5E4B0E0CC
:1039B000E5E4F0E080818B7F8C93A5E4B0E0E5E462
:1039C000F0E0808182608C93A5E4B0E0E5E4F0E073
:1039D00080818E7F8C9389810F90CF91DF910895A4
:1039E000DF93CF93CDB7DEB7A9E5B0E0E9E5F0E02E
:1039F00080818F778C93A9E5B0E0E9E5F0E08081E4
:103A00008F7B8C93CF91DF910895DF93CF93CDB7C8
:103A1000DEB7A9E5B0E0E9E5F0E080818F778C932F
:103A2000A9E5B0E0E9E5F0E0808180648C93CF9176
:103A3000DF9108951F920F920FB60F9211242F93CA
:103A40003F934F935F936F937F938F939F93AF9326
:103A5000BF93EF93FF93DF93CF93CDB7DEB7809102
:103A6000190190911A01019690931A0180931901FE
:103A70002091190130911A0180913001909131010A
:103A800028173907A1F4E4E4F0E080913201808343
:103A900010921A011092190180911501909116014E
:103AA000009729F0E0911501F09116010995CF9149
:103AB000DF91FF91EF91BF91AF919F918F917F9196
:103AC0006F915F914F913F912F910F900FBE0F908B
:103AD0001F9018951F920F920FB60F9211242F93DB
:103AE0003F934F935F936F937F938F939F93AF9386
:103AF000BF93EF93FF93DF93CF93CDB7DEB7809162
:103B00001B0190911C01019690931C0180931B0155
:103B100020911B0130911C0180913301909134015F
:103B20002817390779F410921C0110921B0180911B
:103B3000170190911801009729F0E0911701F09179
:103B400018010995CF91DF91FF91EF91BF91AF914E
:103B50009F918F917F916F915F914F913F912F91A5
:103B60000F900FBE0F901F901895DF93CF93CDB796
:103B7000DEB7C454D0400FB6F894DEBF0FBECDBF41
:103B80008FEF8F87CE0140969FAB8EABE0E6F0E0E3
:103B9000F9AFE8AFF0E1FAAFE8ADF9AD008088AD7C
:103BA00099AD019699AF88AFEEA9FFA900828EA9C1
:103BB0009FA901969FAB8EAB9AAD91509AAFEAAD9B
:103BC000EE2351F7CE0180969CAF8BAFE0E7F0E09B
:103BD000FEAFEDAFFDE0FFAFEDADFEAD00808DAD12
:103BE0009EAD01969EAF8DAFEBADFCAD00828BAD6F
:103BF0009CAD01969CAF8BAF9FAD91509FAFEFAD49
:103C0000EE2351F7CE018D9622969FAF8EAF22976D
:103C1000EDE7F0E02496FFAFEEAF2497F9E02596AC
:103C2000FFAF25972496EEADFFAD24970080249634
:103C30008EAD9FAD2497019624969FAF8EAF2497AB
:103C40002296EEADFFAD2297008222968EAD9FADFB
:103C50002297019622969FAF8EAF229725969FAD11
:103C60002597915025969FAF25972596EFAD2597DF
:103C7000EE23C1F60E944F060E94A10E28E732E211
:103C800080E0B9010E94EC0A25EB32E282E0B90142
:103C90000E94EC0A80E062E00E94140B82E062E085
:103CA0000E94140B0E944B0D29EB31E283E49FE04C
:103CB000B9010E94E21680EC0E9440172CE833E222
:103CC00083E49FE0B9010E94191C80EC0E94771CDC
:103CD000CE0140960E94A61380E090E0AAEFB4E4E3
:103CE0008B879C87AD87BE876B857C858D859E8500
:103CF00020E030E04AEF54E40E941F02DC01CB01D7
:103D00008F839887A987BA876F81788589859A85F7
:103D100020E030E040E85FE30E94250488232CF493
:103D200081E090E09E838D833FC06F817885898597
:103D30009A8520E03FEF4FE757E40E94C50318162D
:103D40004CF56B857C858D859E8520E030E040E2DA
:103D500051E40E941F02DC01CB01BC01CD010E9495
:103D60004900DC01CB019E838D830FC088EC90E07D
:103D70009C838B838B819C810197F1F79C838B8340
:103D80008D819E8101979E838D838D819E81009779
:103D900069F714C06F81788589859A850E944900EA
:103DA000DC01CB019E838D838D819E819A838983E3
:103DB00089819A810197F1F79A8389830E94D014AF
:103DC00081E060E00E949C14CE0180960E94A613C0
:103DD00082E060E00E949C14CE018D960E94A613A2
:103DE000CE010F960E94670D8F858F3FC9F38F8597
:103DF000813329F48FEF8F870E943A1FF1CF8F858F
:103E0000823371F78FEF8F870E94771FE9CFDF939F
:103E1000CF93CDB7DEB782E062E00E949C1480E3CE
:103E20000E94BC1280E30E94BC1282E065E00E9406
:103E30009C148AE30E94BC1282E067E00E949C14FA
:103E400080E30E94BC1280E30E94BC1282E06AE020
:103E50000E949C148AE30E94BC1282E06CE00E94E3
:103E60009C1480E30E94BC1280E30E94BC12CF919C
:103E7000DF910895DF93CF93CDB7DEB72F970FB6BD
:103E8000F894DEBF0FBECDBFCE0101969C878B8715
:103E9000E6E8F0E0FE87ED87FAE0FF87ED85FE8536
:103EA00000808D859E8501969E878D87EB85FC859C
:103EB00000828B859C8501969C878B879F8591507E
:103EC0009F87EF85EE2351F70E94D014CE01019613
:103ED0000E94A6130E94071F0E946E172F960FB60E
:103EE000F894DEBF0FBECDBFCF91DF910895DF9371
:103EF000CF93CDB7DEB7E7970FB6F894DEBF0FBE0E
:103F0000CDBF8FEF8F878EE0888B9E012F5E3F4F56
:103F10003AA729A780E990E09CA78BA796E09DA7E8
:103F2000EBA5FCA500802BA53CA52F5F3F4F3CA730
:103F30002BA7E9A5FAA5008229A53AA52F5F3F4F37
:103F40003AA729A73DA531503DA78DA5882341F764
:103F50000E94D014CE0141960E94A6130E94071F12
:103F600092C0CE010F960E94670D8F858F3FC9F3D7
:103F70008F85823549F481E00E948F168FEF8F87FD
:103F800088898F5F888B7FC08F858C3449F480E06F
:103F90000E948F168FEF8F8788898150888B73C01E
:103FA0008F85803308F46FC08F858A3308F06BC02B
:103FB0008889823081F08889833069F088898730E8
:103FC00051F08889883039F088898C3021F08889CF
:103FD0008D3009F056C08F85882F90E0C097AA27B2
:103FE00097FDA095BA2FBC01CD010E94CF138889FF
:103FF000E82FF0E0F8A7EFA32FA138A5273031056F
:1040000051F18FA198A5883091055CF4EFA1F8A536
:10401000E230F105B1F02FA138A523303105B1F020
:104020002DC08FA198A58C309105F9F0EFA1F8A5CE
:10403000ED30F105F9F02FA138A52830310581F0D8
:104040001DC08F8580538093350118C08F858053A4
:104050008093360113C08F858053809337010EC043
:104060008F8580538093380109C08F85805380935A
:10407000390104C08F85805380933A0188898F5F0E
:10408000888B8FEF8F878F85833509F06ECF809176
:104090003501882F90E09C01220F331FC901880F42
:1040A000991F880F991F820F931F982F80913601B7
:1040B000890F8093400180913701882F90E09C0107
:1040C000220F331FC901880F991F880F991F820F74
:1040D000931F982F80913801890F80933F01809121
:1040E0003901882F90E09C01220F331FC901880FEE
:1040F000991F880F991F820F931F982F80913A0163
:10410000890F80933E01809140018A3078F082E0EF
:1041100062E00E949C1480914001882F90E0A0E012
:10412000B0E0BC01CD010E94CF130EC082E063E07D
:104130000E949C1480914001882F90E0A0E0B0E0A4
:10414000BC01CD010E94CF1380913F018A3078F0ED
:1041500082E067E00E949C1480913F01882F90E0EC
:10416000A0E0B0E0BC01CD010E94CF130EC082E000
:1041700068E00E949C1480913F01882F90E0A0E0AD
:10418000B0E0BC01CD010E94CF1380913E018A3086
:1041900078F082E06CE00E949C1480913E01882FB0
:1041A00090E0A0E0B0E0BC01CD010E94CF130EC0B2
:1041B00082E06DE00E949C1480913E01882F90E087
:1041C000A0E0B0E0BC01CD010E94CF13CE01479624
:1041D0009FA78EA7E6E9F0E0F9ABE8ABF8E0FAAB11
:1041E000E8A9F9A9008028A939A92F5F3F4F39AB69
:1041F00028ABEEA5FFA500822EA53FA52F5F3F4F60
:104200003FA72EA73AA931503AAB8AA9882341F794
:10421000FE017F96FCABEBAB2EE930E03EAB2DAB65
:1042200038E03FABEDA9FEA900802DA93EA92F5F84
:104230003F4F3EAB2DABEBA9FCA900822BA93CA9BB
:104240002F5F3F4F3CAB2BAB3FA931503FAB8FA90A
:10425000882341F70E94CE1781E069E00E949C14F8
:10426000CE0147960E94A61380E090E0AAEFB3E447
:104270008B879C87AD87BE876B857C858D859E856A
:1042800020E030E04AEF54E40E941F02DC01CB0141
:104290008F839887A987BA876F81788589859A8562
:1042A00020E030E040E85FE30E94250488232CF4FE
:1042B00081E090E09E838D833FC06F817885898502
:1042C0009A8520E03FEF4FE757E40E94C503181698
:1042D0004CF56B857C858D859E8520E030E040E245
:1042E00051E40E941F02DC01CB01BC01CD010E9400
:1042F0004900DC01CB019E838D830FC088EC90E0E8
:104300009C838B838B819C810197F1F79C838B83AA
:104310008D819E8101979E838D838D819E810097E3
:1043200069F714C06F81788589859A850E94490054
:10433000DC01CB019E838D838D819E819A8389834D
:1043400089819A810197F1F79A83898381E069E0F5
:104350000E949C14CE014F960E94A6130E94A51C99
:10436000E7960FB6F894DEBF0FBECDBFCF91DF91B9
:104370000895DF93CF93CDB7DEB780913D018F5F76
:1043800080933D0180913D018A3078F482E06DE0B8
:104390000E949C1480913D01882F90E0A0E0B0E045
:1043A000BC01CD010E94CF13A0C080913D018A3095
:1043B00098F080913D018C3378F482E06CE00E94AB
:1043C0009C1480913D01882F90E0A0E0B0E0BC01FA
:1043D000CD010E94CF1389C080913C018F5F8093F3
:1043E0003C0110923D0182E06CE00E949C1460E070
:1043F00070E080E090E00E94CF1382E06DE00E94C8
:104400009C1460E070E080E090E00E94CF13809107
:104410003C018A3078F482E068E00E949C1480912C
:104420003C01882F90E0A0E0B0E0BC01CD010E94EB
:10443000CF135BC080913C018A3098F080913C01A1
:104440008C3378F482E067E00E949C1480913C01F8
:10445000882F90E0A0E0B0E0BC01CD010E94CF1316
:1044600044C080913B018F5F80933B0110923C01DF
:1044700082E067E00E949C1460E070E080E090E0E1
:104480000E94CF1382E068E00E949C1460E070E01C
:1044900080E090E00E94CF1380913B018A3078F455
:1044A00082E063E00E949C1480913B01882F90E0A1
:1044B000A0E0B0E0BC01CD010E94CF1316C08091F6
:1044C0003B018A3090F080913B01843670F482E0A9
:1044D00062E00E949C1480913B01882F90E0A0E054
:1044E000B0E0BC01CD010E94CF13CF91DF910895C0
:1044F000DF93CF93CDB7DEB72B970FB6F894DEBF1F
:104500000FBECDBFCE01019698878F83E6EAF0E01B
:10451000FA87E987F6E0FB87E985FA8500808985D7
:104520009A8501969A878987EF81F88500828F8125
:104530009885019698878F839B8591509B87EB8503
:10454000EE2351F70E94B91781E06BE00E949C14A2
:10455000CE0101960E94A6132B960FB6F894DEBFEB
:104560000FBECDBFCF91DF910895DF93CF93CDB72D
:10457000DEB7A6970FB6F894DEBF0FBECDBFCE0153
:104580000F969E8F8D8FECEAF0E0F8A3EF8FF7E0A7
:10459000F9A3EF8DF8A100808F8D98A1019698A3C3
:1045A0008F8FED8DFE8D00828D8D9E8D01969E8F5D
:1045B0008D8F99A1915099A3E9A1EE2351F7CE01D6
:1045C00046969BA38AA3E3EBF0E0FDA3ECA3F7E000
:1045D000FEA3ECA1FDA100808CA19DA101969DA34D
:1045E0008CA3EAA1FBA100828AA19BA101969BA3B7
:1045F0008AA39EA191509EA3EEA1EE2351F70E94A3
:10460000CE1781E06AE00E949C14CE010F960E94B2
:10461000A61380E090E0AFE2B4E48B879C87AD877F
:10462000BE876B857C858D859E8520E030E04AEFD6
:1046300054E40E941F02DC01CB018F839887A98775
:10464000BA876F81788589859A8520E030E040E8D7
:104650005FE30E94250488232CF481E090E09E8390
:104660008D833FC06F81788589859A8520E03FEFF3
:104670004FE757E40E94C50318164CF56B857C85FF
:104680008D859E8520E030E040E251E40E941F02CB
:10469000DC01CB01BC01CD010E944900DC01CB0152
:1046A0009E838D830FC088EC90E09C838B838B81ED
:1046B0009C810197F1F79C838B838D819E8101976B
:1046C0009E838D838D819E81009769F714C06F81D1
:1046D000788589859A850E944900DC01CB019E83FB
:1046E0008D838D819E819A83898389819A810197A7
:1046F000F1F79A83898381E06AE00E949C14CE01DD
:1047000046960E94A613A6960FB6F894DEBF0FBE7B
:10471000CDBFCF91DF910895DF93CF93CDB7DEB7B3
:104720006E970FB6F894DEBF0FBECDBF80913E01ED
:10473000882389F180913E01815080933E018091D0
:104740003E018A3078F082E06CE00E949C148091F7
:104750003E01882F90E0A0E0B0E0BC01CD010E94B6
:10476000CF1388C082E06CE00E949C1460E070E08F
:1047700080E090E00E94CF1382E06DE00E949C14E4
:1047800080913E01882F90E0A0E0B0E0BC01CD0117
:104790000E94CF136FC080913F018823A1F18091C7
:1047A0003F01815080933F018CE380933E018091D3
:1047B0003F018A3078F082E067E00E949C1480918B
:1047C0003F01882F90E0A0E0B0E0BC01CD010E9445
:1047D000CF1350C082E067E00E949C1460E070E05C
:1047E00080E090E00E94CF1382E068E00E949C1479
:1047F00080913F01882F90E0A0E0B0E0BC01CD01A6
:104800000E94CF1337C080914001882399F1809195
:1048100040018150809340018CE380933F0180915F
:1048200040018A3078F082E062E00E949C1480911E
:104830004001882F90E0A0E0B0E0BC01CD010E94D3
:10484000CF1318C082E062E00E949C1460E070E028
:1048500080E090E00E94CF1382E063E00E949C140D
:1048600080914001882F90E0A0E0B0E0BC01CD0134
:104870000E94CF1380914001882309F0AEC080913F
:104880003F01882309F0A9C080913E01882309F0E7
:10489000A4C0CE010F969B8F8A8FEAEBF0E0FD8FCC
:1048A000EC8FFBE0FE8FEC8DFD8D00808C8D9D8D5F
:1048B00001969D8F8C8FEA8DFB8D00828A8D9B8D5A
:1048C00001969B8F8A8F9E8D91509E8FEE8DEE2349
:1048D00051F70E94D014CE010F960E94A61381E0DA
:1048E00060E041E00E94610780E090E0AAE7B4E464
:1048F0008B879C87AD87BE876B857C858D859E85E4
:1049000020E030E04AEF54E40E941F02DC01CB01BA
:104910008F839887A987BA876F81788589859A85DB
:1049200020E030E040E85FE30E94250488232CF477
:1049300081E090E09E838D833FC06F81788589857B
:104940009A8520E03FEF4FE757E40E94C503181611
:104950004CF56B857C858D859E8520E030E040E2BE
:1049600051E40E941F02DC01CB01BC01CD010E9479
:104970004900DC01CB019E838D830FC088EC90E061
:104980009C838B838B819C810197F1F79C838B8324
:104990008D819E8101979E838D838D819E8100975D
:1049A00069F714C06F81788589859A850E944900CE
:1049B000DC01CB019E838D838D819E819A838983C7
:1049C00089819A810197F1F79A83898381E060E078
:1049D00040E00E9461070E94F01C6E960FB6F894AA
:1049E000DEBF0FBECDBFCF91DF910895629FD00192
:1049F000739FF001829FE00DF11D649FE00DF11D9A
:104A0000929FF00D839FF00D749FF00D659FF00D48
:104A10009927729FB00DE11DF91F639FB00DE11D35
:104A2000F91FBD01CF0111240895AA1BBB1B51E141
:104A300007C0AA1FBB1FA617B70710F0A61BB70B0E
:104A4000881F991F5A95A9F780959095BC01CD01B3
:104A50000895A1E21A2EAA1BBB1BFD010DC0AA1FBF
:104A6000BB1FEE1FFF1FA217B307E407F50720F0D7
:104A7000A21BB30BE40BF50B661F771F881F991F52
:104A80001A9469F760957095809590959B01AC019B
:104A9000BD01CF0108952F923F924F925F926F9286
:104AA0007F928F929F92AF92BF92CF92DF92EF92BE
:104AB000FF920F931F93CF93DF93CDB7DEB7CA1B3F
:104AC000DB0B0FB6F894DEBF0FBECDBF09942A886A
:104AD000398848885F846E847D848C849B84AA8412
:104AE000B984C884DF80EE80FD800C811B81AA819F
:104AF000B981CE0FD11D0FB6F894DEBF0FBECDBF6A
:084B0000ED010895F894FFCFC8
:104B08002E2E2E2E57656C636F6D652E2E2E2E0061
:104B180028312953746F70776174636800283229CB
:104B280054696D65720053746F70776174636800BF
:104B380054696D65720053746172742E2E002020C2
:104B48002020202020005061757365005265737520
:104B58006D65002020202020200054696D65277392
:104B680020557021000000000000000000313233A1
:104B78002B3435362D3738392A4C53522503030345
:0E4B88000300010304010101010405060700FA
:00000001FF
